:020000040800F2
:10000000B0040020D50000083D120008A911000826
:1000100000000000000000000000000000000000E0
:10002000000000000000000000000000F9120008BD
:10003000000000000000000085120008FB1200080C
:10004000E7000008E7000008E7000008E7000008F4
:10005000E7000008E7000008E7000008E7000008E4
:10006000E7000008E7000008E7000008E7000008D4
:10007000E7000008E700000800000000E5130008A2
:1000800000000000E7000008000000000000000081
:10009000E700000800000000E7000008E700000893
:1000A000E7000008E7000008E7000008E700000894
:1000B000E7000008E7000008E7000008E700000884
:1000C0000348854600F07CF8004800479518000872
:1000D000B00400200448804704480047FEE7FEE7DC
:1000E000FEE7FEE7FEE7FEE791130008C100000807
:1000F00030B50B46014600202022012409E00D46C0
:10010000D5409D4205D31D469540491B2546954047
:1001100040191546521E002DF1DC30BDF0B51FB45C
:100120000646002082B005464024019100901BE065
:10013000019922460F46304600F030F8049A059B9C
:10014000801A994110D310461946224600F016F83D
:10015000361A8F410197224601200021009F00F0AE
:100160000DF838184D4100902046641E0028DFDC51
:10017000019B00982946324607B0F0BD10B5202AF1
:1001800004DB0146203A9140002010BD914020231D
:100190009C1A0346E3401943904010BD10B5202A35
:1001A00004DB0846203AD040002110BD0B46D34066
:1001B000D0402024A21A91400843194610BD0000E7
:1001C000064C0125064E05E0E36807CC2B430C3CAA
:1001D00098471034B442F7D3FFF776FF04190008AC
:1001E00024190008F8B500230124A2E027469F4007
:1001F0003A4070D04D68022D01D0122D14D1DD0887
:10020000AD002D1800952D6A5E07AC46F50E0F2641
:10021000AE46AE406546B543AC460E697546AE4047
:1002200065462E43009D2E624D68012D05D0022D9E
:1002300003D0112D01D0122D16D185680326AC46AE
:100240005D00AE46AE406546B543AC46CE687546E9
:10025000AE4065462E43866046680D79BE43ED0686
:10026000ED0F9D403543456006685F000325BD40A6
:10027000AE46AE430D79B446AE07B60FBE406546F6
:100280002E430660C6687546AE438D68BD40354353
:10029000C5604D68ED004BD5294D6E6B26436E63EE
:1002A0009E08284DB6007519AC46AD689E07360FFE
:1002B0000F27B740BD4305273F07B84201D10027AC
:1002C00015E0214FB84201D1012710E01F4FB8427D
:1002D00002D102270BE02BE01D4FB84201D10327CA
:1002E00005E01C4FB84201D1052700E00627B740C2
:1002F0002F436546AF60184D2E684F689643FF0345
:1003000000D516432E606E684F689643BF0300D534
:1003100016436E60AE684F689643FF0200D51643E1
:10032000AE60EE684F689643BF0200D51643EE609C
:100330005B1C0A681546DD4000D057E7F8BD000099
:10034000001002400000014000040050000800506E
:10035000000C0050001C005000040140002A01D095
:1003600081617047816270470148006870470000F2
:100370000000002002480168491C0160704700002D
:100380000000002010B506480168402211430160BA
:10039000002000F007F800F019F8002010BD000060
:1003A0000020024010B5044607487D21C9000068BE
:1003B000FFF79EFE00F020FD00222146501E00F0B7
:1003C0002BF8002010BD00000400002010B50C48E0
:1003D000416B012211434163816B0204114381632C
:1003E00000221146501F00F017F800221146901EFF
:1003F00000F012F800221146501E00F00DF810BD5A
:1004000000100240C106C90E012088400149086061
:100410007047000000E100E010B500F011FF10BDD2
:10042000F8B501265E490746F602002035015B4B10
:100430005B4A4031102F6ED011DC012F6FD0022F9C
:100440006BD0042F6AD0082F1CD1C9680324240361
:10045000214073D0BD026C10A94274D097E0514C7A
:10046000202F03D0402F2FD0B7420BD10B69096941
:1004700003263604012731403F04B94203D19905D0
:1004800059E02846F8BD01256D04A94203D199071A
:10049000F8D54548F8BDB142FCD111688903F9D5BA
:1004A000116803200005014001200005091A09D048
:1004B000091A05D0814201D13C48F8BD2046F8BD5B
:1004C0003B48F8BD3B48F8BDC9680125AD06294049
:1004D00006D0A942F7D191688907F4D53648F8BD0E
:1004E00011688901FBD5D068D1688002334D000FB7
:1004F0002D5C0802810FD068491CC00306D4106827
:10050000C00601D5204602E0184600E02C486843AA
:10051000FFF7EEFDF8BD3DE001E01CE029E0CC680E
:10052000A407A40F0CD0022C0DD0012C10D0032C4A
:10053000F0D1096989050029A3DBEBE716E002E0A9
:1005400000F0D6F9E6E711684907E3D51846E1E778
:1005500000F0DEF9DEE7CC680C26344006D0082C2B
:10056000F1D0042CF4D00C2CE3D0D3E700F0B0F998
:10057000D0E7CC680327BF023C40F7D0B442E2D0BA
:10058000012292029442E3D0BC42D2D0C2E7A142FF
:10059000DED0BFE7916B4902E8D4BBE70024F4004A
:1005A0000010024000093D008890000020A10700D3
:1005B00040420F0080841E00006CDC02F01800082E
:1005C00000127A00F8B504460068614D810601D436
:1005D00000057DD55E4E0027403EB06BC00004D4C0
:1005E000B06B31040843B06301275A480168C9055C
:1005F00011D40168821511430160FFF7B5FE009028
:1006000005E0FFF7B1FE0099401A642844D851482C
:100610000068C005F5D53168032000056268014017
:100620001040884205D10323A0681B05184088426A
:1006300008D09003800F032804D13068800301D5CF
:100640000120F8BD286903210904084029D00A4087
:10065000824202D02278920606D4A2680A408242E0
:100660001FD0208800051CD528692A6988430121EC
:10067000C9040A432A612A698A432A612861C0059C
:100680000FD5FFF771FE009008E0FFF76DFE0099AF
:10069000411A3148814201D90320F8BD28698005FB
:1006A000F3D561688803800F032805D132680005FF
:1006B000824301400A4332602869032261681204C0
:1006C000114008432861002F06D0B16B012000E0E3
:1006D00002E000078143B1632078C00705D0E868D5
:1006E000E168800880000843E8602078800705D52D
:1006F000E8680C21884321690843E86020784007B6
:1007000006D5E86803218902884361690843E860E7
:100710002078000706D5E868032109038843A1690A
:100720000843E8602078400606D5E868012189067C
:100730008843216A0843E8602078000606D5E86807
:10074000032189048843E1690843E8600020F8BD7B
:10075000401002400070004088130000F8B50546C4
:1007600053480E460068C007C00FB0420AD2504836
:10077000016849084900314301600068C007C00FA3
:10078000B0426FD128784B4C800705D5E068F02146
:100790008843A9680843E0602878C00752D0686899
:1007A000022817D0032818D02168012818D08905FD
:1007B000002957DAE168890889000143E160FFF701
:1007C000D3FD69680746022912D003291CD00129EC
:1007D00026D033E021688903EAE721688901E7E749
:1007E0004907E5E7FFF7C0FDC11B3348814223D825
:1007F000E0680007800F0228F4D123E0FFF7B4FD82
:10080000C11B2D48814217D8E0680007800F0328DC
:10081000F4D117E0FFF7A8FDC11B274881420BD890
:10082000E0680007800F0128F4D10BE0FFF79CFD82
:10083000C11B2148814201D90320F8BDE0680007AF
:10084000800FF3D11A480168C907C90FB1420BD90B
:10085000016849084900314301600068C007C00FC2
:10086000B04201D00120F8BD2878400706D5E068E5
:10087000072109028843E9680843E06028780007F7
:1008800007D5E0680721C90288432969C9000843E0
:10089000E06000F03DF8E168084A0906090F515C84
:1008A000C840074908600020FFF77CFD0020F8BD24
:1008B000002002400010024088130000E0180008E9
:1008C0000400002001480068704700000400002078
:1008D000044805490068C968044A4905490F515C44
:1008E000C84070470400002000100240F9180008BA
:1008F000044805490068C968044A8904490F515CE5
:10090000C84070470400002000100240F918000899
:1009100010B5184AD1680C20084004280BD00828CC
:1009200010D00C2810D050680004410F0120C003E3
:10093000491C884010BD1068C00601D50E4810BD86
:100940000E4810BD0E4810BD88020E4B000F185CFB
:100950000902D368890F491CDB0301D5084A05E069
:100960001268D20601D5044A00E0044A5043FFF75A
:10097000BFFB10BD0010024000093D000024F40040
:1009800000127A00F0180008F8B504460078FE4D11
:10099000C0074AD0E8680007800F022807D0E8683F
:1009A0000007800F032809D1E868C00306D528682E
:1009B00080033AD56068002873D036E00120626871
:1009C0000004824203D129680143296011E0052314
:1009D00001211B0489049A422A6802D10A432A6031
:1009E000F1E782432A602A6802400092286888431F
:1009F0002860606800280CD0FFF7B6FC064604E0CB
:100A0000FFF7B2FC801B64287ED828688003F7D5E6
:100A10000BE0FFF7A9FC064604E0FFF7A5FC801BEE
:100A20006428F1D828688003F7D42078800741D55E
:100A3000E8681F270007800F3F02012807D0E868F9
:100A40000007800F032809D1E868C00306D428688E
:100A5000400717D5E068012823D113E0E06800289B
:100A600017D029680922914301432960FFF77CFCD4
:100A7000064604E0FFF778FC801B0228C4D82868EB
:100A80004007F7D568682169B843090208436860E0
:100A900010E02868400840002860FFF765FC064623
:100AA00005E095E0FFF760FC801B0228ACD82868C1
:100AB0004007F7D42078C00672D5E868B34E000727
:100AC000800F0AD0E06900282868B1495AD008434D
:100AD0002860FFF749FC074644E02868800502D5F6
:100AE000E069002874D0606A69683140884212D990
:100AF00000F0CAFB0028AFD16868616AB0430843C0
:100B000068606868000200E0DCE0218C000A0906E9
:100B1000084368600FE06968B14301436960686831
:100B2000218C0002000A090608436860606A00F030
:100B3000ABFB002890D1606A410B0120C003491C27
:100B40008840E96809060A0F9249895CC8409249C1
:100B500008600020FFF726FC22E0FFF705FCC01B21
:100B600002288BD828688005F7D56868616AB04389
:100B7000084368606868218C0002000A090608437F
:100B800068600DE088432860FFF7EEFB064604E04E
:100B9000FFF7EAFB801B022888D828688005F7D475
:100BA00020787E4E000723D560690028306910D078
:100BB000012108433061FFF7D7FB074604E0FFF748
:100BC000D3FBC01B02287DD830698007F7D50FE022
:100BD00001E1400840003061FFF7C6FB074604E032
:100BE000FFF7C2FBC01B02286CD830698007F7D41E
:100BF0002078400760D5A86B0027C00005D4A86BFB
:100C0000012109070843A863012765480168C90550
:100C100011D40168821511430160FFF7A5FB009014
:100C200005E0FFF7A1FB0099401A64284AD85C4808
:100C30000068C005F5D55648A268824203D13169E3
:100C40000143316111E001218902002A07D0052307
:100C50001B029A4203D132690A433261EFE73269DB
:100C600082433261306988433061A06800280ED029
:100C7000FFF77AFB009006E0FFF776FB0099411A38
:100C8000484881421ED830698005F5D50DE0FFF750
:100C90006BFB009006E0FFF767FB0099411A4148A3
:100CA00081420FD830698005F5D4002F04D0A96B9C
:100CB000012000078143A9632078800630D53A4897
:100CC000421400E080E0A169002916D0AB68012140
:100CD0000B43AB606B6B0B436B63016A11430162A7
:100CE000FFF742FB064604E0FFF73EFB801B0228AD
:100CF0006AD8A8688007F7D512E0A96849084900B2
:100D0000A960016A91430162FFF72EFB064604E0E9
:100D1000FFF72AFB801B022856D8A8688007F7D463
:100D2000A06A002855D0E9680907890F032952D025
:100D3000012636060228286805D0B0432860FFF750
:100D400013FB044642E0B0432860FFF70DFB074663
:100D500004E0FFF709FBC01B022835D82868800192
:100D6000F7D4216BE06AEA680843616BFD231B043A
:100D70009A4311430843E860286830432860FFF72E
:100D8000F3FA044617E000000010024000E0000003
:100D900000010000E018000804000020401002409C
:100DA000007000408813000000000140FFF7DCFAEB
:100DB000001B022808D828688001F7D509E0FFF752
:100DC000D3FA001B022801D90320F8BD286880014E
:100DD000F5D40020F8BD0120F8BD0000042204492C
:100DE0000428086902D09043086170471043FBE76C
:100DF00000E000E070470000094910B5401E88423D
:100E000001D9012010BD074C60610321081F00F0CB
:100E100017FA0020A06107202061002010BD00000B
:100E2000FFFFFF0000E000E010B5FFF7E3FF10BD9B
:100E300070B502462032137D012B1BD001231375A0
:100E400002245475046865687026B54365600468BB
:100E500065680E68354365600468A5688026B543FB
:100E6000A5600068846849680C438460537500205D
:100E7000107570BD022070BD70B5040005D0254608
:100E80002035687D002802D006E0012070BD0020DA
:100E90002875204600F00AF802206875211D206898
:100EA00000F0A8FA01206875002070BD10B5006838
:100EB0000121890788420CD10648816B0122114328
:100EC0008163002211460F20FFF7A6FA0F20FFF7DB
:100ED00099FA10BD00100240F8B5054604462035C9
:100EE000287D012817D001272F75022068752268F8
:100EF00090687726FF23B0431B02984390600868F0
:100F0000502837D00EDC202857D006DC00284ED0E1
:100F1000102840D14EE00220F8BD302850D04028A3
:100F200039D13CE060282DD0702817D0012212035F
:100F3000801A0ED090422ED1CB684A68896820680A
:100F400000F080FA206881680122920311438160D9
:100F500021E020688168C908C900F8E7CB684A68C1
:100F60008968206800F06EFA21688868B0433043D1
:100F7000886010E0CA684968206800F076FA50215D
:100F8000206806E0CA684968206800F07FFA60219E
:100F9000206800F062FA6F7500202875F8BDCA68F5
:100FA0004968206800F061FA40212068F1E70021DB
:100FB0002068EEE710212068EBE720212068E8E7B1
:100FC00030212068E5E7704770B504460068016984
:100FD0000025C9438907002915DBC168C943890772
:100FE00011D4E91E01610120207520688069800705
:100FF000204602D0FFF7E7FF04E000F078F8204633
:1010000000F076F8257520680169C943490717D4AF
:10101000C168C943490713D40421C94301610220AF
:101020002075206880698005800F204602D0FFF778
:10103000CAFF04E000F05BF8204600F059F825757F
:1010400020680169C943090716D4C168C943090763
:1010500012D40821C9430161042020752068C069A9
:101060008007204602D0FFF7AEFF04E000F03FF813
:10107000204600F03DF8257520680169C943C9067E
:1010800017D4C168C943C90613D41021C9430161EB
:10109000082020752068C0698005800F204602D096
:1010A000FFF791FF04E000F022F8204600F020F85E
:1010B000257520680169C943C90708D1C168C943BA
:1010C000C90704D1891E0161204600F012F820688A
:1010D0000169C943490609D4C168C943490605D411
:1010E0004021C9430161204600F004F870BD7047FB
:1010F00070477047704770B5040005D025466035CD
:10110000687A002802D006E0012070BD0020287215
:10111000204600F027F824206872206801684908FA
:1011200049000160606A002802D0204600F0C1F941
:10113000204600F053FA0128E7D0206841680922D0
:10114000D20291434160206881682A2291438160E4
:1011500020680168012211430160204600F00EFA68
:1011600070BD000000B500680D4985B0884215D1FA
:101170000C48416B0122920311434163032040025A
:101180000090022001900020029003200390042090
:101190000490052069460007FFF724F805B000BD5C
:1011A0000038014000100240FEE7000010B50121A8
:1011B000124886B0890701600024114984604160AB
:1011C0007D21C9000461C160FFF756FE002800D0F0
:1011D000FEE701200003009069460848FFF77CFE07
:1011E000002800D0FEE7049404A904480594FFF702
:1011F0001FFE002800D0FEE706B010BD080000204A
:101200003F1F000010B50C480A490160E121490266
:10121000416000218160C16001618161C1610C2276
:10122000016242614162FFF766FF002800D0FEE7DD
:1012300010BD000000380140400000207047000051
:101240008307FF22DB0E9A408907090E9940002888
:101250000BDA0007000F0838830808489B001818AD
:10126000C36993430B43C3617047830804489B00E1
:101270001B181868904308431860704700ED00E0A1
:1012800000E400E07047000070B517490023CA6809
:101290001206120F18D18A6B154CD500134A02D5CD
:1012A0001268224009E08E6B01252D072E438E63C4
:1012B00012688E6B2240AE438E63A24204D103219A
:1012C0008903884200D101230A480168490849007E
:1012D000194301600068C007C00F984201D0012087
:1012E00070BD002070BD0000001002400070004082
:1012F0000018000000200240704710B5FFF73AF8D0
:10130000FFF792FD10BD000030B520489DB0016888
:101310000322D2029143C214891801601020009068
:1013200005200024400301250990079508940A949C
:101330006846FFF729FB002800D0FEE70F200E903B
:101340000F9410941194002112940EA8FFF706FA3E
:10135000002800D0FEE713A813951694FFF732F982
:10136000002800D0FEE7FFF7ADFA7D21C900FEF7A7
:10137000BFFEFFF741FD0420FFF730FD00221146BC
:10138000501EFFF749F81DB030BD0000007000404E
:1013900010480168821511430160C1680E4A11406E
:1013A000C16001680D4A1140016081684908490027
:1013B000816001680122920491430160C168FD22AD
:1013C00012049143C160002101610549C003886096
:1013D00070470000001002400C40FF88F6FFF6FE48
:1013E00000ED00E010B50248FFF7EEFD10BD000073
:1013F0000800002070B5026801239B070F4C104DB8
:10140000984203D0A04201D0A84203D17026B24333
:101410004E683243984203D0A04201D0A84204D182
:1014200003231B029A43CB681A4302608A68C26294
:10143000096881620121416170BD0000000801401E
:101440000014014030B58468FF252D021B021343B0
:10145000AC430B432343836030BD826870239A43BF
:101460000A4307210A438260704730B5036A046A61
:101470006408640004628469F025AC4312012243CD
:101480000A24A3430B438261036230BD30B5036A73
:101490001024A34303628469036A0F252D031203FA
:1014A000AC432243A024A343090119438261016292
:1014B00030BD10B5818CC90707D001684A68012387
:1014C0005B049A43836A1A434A60818C890707D573
:1014D00001684A6801231B049A43C36A1A434A609D
:1014E000818C490707D501684A6801239B049A4308
:1014F000036B1A434A60818C090707D501684A6863
:101500000123DB039A43436B1A434A60818CC9066B
:1015100007D50268916801231B039943836B194324
:101520009160818C890607D501688A6801235B0375
:101530009A43C36B1A438A60818C490612D50368AB
:101540005A6801210905046C8A4322435A60026CDF
:101550008A4207D10268516803235B059943436CB3
:1015600019435160818C090607D501684A68012337
:10157000DB04806C9A4302434A6010BDF8B5002634
:101580000446C666FEF7F0FE054620680068124F66
:10159000000709D501212B46002249052046009766
:1015A00000F02AF900280DD12068006840070BD50B
:1015B00001212B46002289052046009700F01CF9E6
:1015C000002801D00320F8BD202060346072A07292
:1015D00026720020F8BD0000FFFFFF01FEB50446A3
:1015E000016880682269E369104362691027002658
:1015F0001A4310430A683546754B1A4002430A6085
:1016000020684168032212039143E268114341605C
:10161000704A2168A069914201D0226A10438A6809
:101620000B231B029A4302438A606B4A21686B4872
:1016300091420CD1C0688007800F06D001283DD0B0
:10164000022839D0032820D11EE001271DE0644A7A
:1016500091420AD1C0680C2108402BD004282DD01B
:10166000082829D00C2810D10EE05A4A91420CD1FA
:10167000C1680320800201401CD01015091A1DD03A
:10168000091A19D0814200D108270220FEF7C8FEAE
:101690000190504B514922684039D81300929A4228
:1016A00035D1002F0CD0022F0DD0042F12D0082FCF
:1016B0001CD113E00027E8E70227E6E70427E4E768
:1016C000FFF706F908E00868C00601D5454805E0BF
:1016D000454803E0FFF71CF9002873D06268510009
:1016E0005118814202D81103814201D2012569E0DB
:1016F000010E06025008002330185941FEF70EFD76
:1017000003210902394A411A914259D9EEE7E269A7
:1017100082422DD13B0000F0A0F80906080B2419E5
:101720002424241F2400019812E0FFF7E1F80FE0C1
:1017300008686168C00602D548082D4A01E02D4AB4
:1017400048088018FEF7D4FC86B20BE0FFF7E0F8FB
:10175000616840004A08F4E7616801224808120401
:10176000EFE70125310909013007400F084327E061
:101770003B0000F072F809070A0D061D060606294F
:101780000600B3E7FFF7A4F814E0FFF7B1F811E0A3
:1017900008686168C00602D54A08124801E012488C
:1017A0004A081018FEF7A4FC81B20098C16009E055
:1017B000FFF7AEF861684A088018FEF799FC80B21E
:1017C0002168C8602846FEBD61684A08E9E7000054
:1017D000F369FFEF0048004000380140401002402C
:1017E0000044004000093D000024F400FFFC0F000D
:1017F00000127A000048E801FFB581B017460E4696
:1018000004460A9D1DE0681C1BD0002D05D0FEF784
:10181000ABFD0499401AA84213D920680168FF2241
:10182000A1329143016020688168490849008160C4
:10183000202060346072A07200202072032005B066
:10184000F0BD2068C1693046884304D00020B8420A
:10185000D9D00020F3E70120F9E730B47446641EC4
:101860002578641CAB4200D21D46635D5B00E31823
:1018700030BC184702E008C8121F08C1002AFAD17C
:1018800070477047002001E001C1121F002AFBD100
:101890007047000086B0FEF775FDFFF735FD0F4875
:1018A000C16A01242143C162C06A052520402D0779
:1018B0000590002220212846FEF750FD002120201F
:1018C000029103910090019469462846FEF78AFC34
:1018D000FFF76CFCFFF796FCFEE7000000100240EB
:1018E00000000000000000000102030406070809D0
:1018F000030406080C101820300000000001020349
:101900000400000024190008000000200800000066
:10191000741800082C19000808000020A804000012
:0C192000841800080000000080841E00F5
:04000005080000C12E
:00000001FF
